{
  "_format": "hh-sol-artifact-1",
  "contractName": "MyEpicGame",
  "sourceName": "contracts/MyEpicGame.sol",
  "abi": [
    {
      "inputs": [
        {
          "internalType": "string[]",
          "name": "characterNames",
          "type": "string[]"
        },
        {
          "internalType": "string[]",
          "name": "characterImageURIs",
          "type": "string[]"
        },
        {
          "internalType": "uint256[]",
          "name": "characterHp",
          "type": "uint256[]"
        },
        {
          "internalType": "uint256[]",
          "name": "characterAttackDmg",
          "type": "uint256[]"
        },
        {
          "internalType": "string",
          "name": "bossName",
          "type": "string"
        },
        {
          "internalType": "string",
          "name": "bossImageURI",
          "type": "string"
        },
        {
          "internalType": "uint256",
          "name": "bossHp",
          "type": "uint256"
        },
        {
          "internalType": "uint256",
          "name": "bossAttackDamage",
          "type": "uint256"
        }
      ],
      "stateMutability": "nonpayable",
      "type": "constructor"
    },
    {
      "anonymous": false,
      "inputs": [
        {
          "indexed": true,
          "internalType": "address",
          "name": "owner",
          "type": "address"
        },
        {
          "indexed": true,
          "internalType": "address",
          "name": "approved",
          "type": "address"
        },
        {
          "indexed": true,
          "internalType": "uint256",
          "name": "tokenId",
          "type": "uint256"
        }
      ],
      "name": "Approval",
      "type": "event"
    },
    {
      "anonymous": false,
      "inputs": [
        {
          "indexed": true,
          "internalType": "address",
          "name": "owner",
          "type": "address"
        },
        {
          "indexed": true,
          "internalType": "address",
          "name": "operator",
          "type": "address"
        },
        {
          "indexed": false,
          "internalType": "bool",
          "name": "approved",
          "type": "bool"
        }
      ],
      "name": "ApprovalForAll",
      "type": "event"
    },
    {
      "anonymous": false,
      "inputs": [
        {
          "indexed": false,
          "internalType": "uint256",
          "name": "newBossHp",
          "type": "uint256"
        },
        {
          "indexed": false,
          "internalType": "uint256",
          "name": "newPlayerHp",
          "type": "uint256"
        }
      ],
      "name": "AttackComplete",
      "type": "event"
    },
    {
      "anonymous": false,
      "inputs": [
        {
          "indexed": false,
          "internalType": "address",
          "name": "sender",
          "type": "address"
        },
        {
          "indexed": false,
          "internalType": "uint256",
          "name": "tokenId",
          "type": "uint256"
        },
        {
          "indexed": false,
          "internalType": "uint256",
          "name": "characterIndex",
          "type": "uint256"
        }
      ],
      "name": "CharacterNFTMinted",
      "type": "event"
    },
    {
      "anonymous": false,
      "inputs": [
        {
          "indexed": true,
          "internalType": "address",
          "name": "from",
          "type": "address"
        },
        {
          "indexed": true,
          "internalType": "address",
          "name": "to",
          "type": "address"
        },
        {
          "indexed": true,
          "internalType": "uint256",
          "name": "tokenId",
          "type": "uint256"
        }
      ],
      "name": "Transfer",
      "type": "event"
    },
    {
      "inputs": [
        {
          "internalType": "address",
          "name": "to",
          "type": "address"
        },
        {
          "internalType": "uint256",
          "name": "tokenId",
          "type": "uint256"
        }
      ],
      "name": "approve",
      "outputs": [],
      "stateMutability": "nonpayable",
      "type": "function"
    },
    {
      "inputs": [],
      "name": "attackBoss",
      "outputs": [],
      "stateMutability": "nonpayable",
      "type": "function"
    },
    {
      "inputs": [
        {
          "internalType": "address",
          "name": "owner",
          "type": "address"
        }
      ],
      "name": "balanceOf",
      "outputs": [
        {
          "internalType": "uint256",
          "name": "",
          "type": "uint256"
        }
      ],
      "stateMutability": "view",
      "type": "function"
    },
    {
      "inputs": [],
      "name": "bigBoss",
      "outputs": [
        {
          "internalType": "string",
          "name": "name",
          "type": "string"
        },
        {
          "internalType": "string",
          "name": "imageURI",
          "type": "string"
        },
        {
          "internalType": "uint256",
          "name": "hp",
          "type": "uint256"
        },
        {
          "internalType": "uint256",
          "name": "maxHp",
          "type": "uint256"
        },
        {
          "internalType": "uint256",
          "name": "attackDamage",
          "type": "uint256"
        }
      ],
      "stateMutability": "view",
      "type": "function"
    },
    {
      "inputs": [],
      "name": "chechIfUserHasNFT",
      "outputs": [
        {
          "components": [
            {
              "internalType": "uint256",
              "name": "characterIndex",
              "type": "uint256"
            },
            {
              "internalType": "uint256",
              "name": "hp",
              "type": "uint256"
            },
            {
              "internalType": "uint256",
              "name": "maxHp",
              "type": "uint256"
            },
            {
              "internalType": "uint256",
              "name": "attackDamage",
              "type": "uint256"
            },
            {
              "internalType": "string",
              "name": "name",
              "type": "string"
            },
            {
              "internalType": "string",
              "name": "imageURI",
              "type": "string"
            }
          ],
          "internalType": "struct MyEpicGame.CharacterAttributes",
          "name": "",
          "type": "tuple"
        }
      ],
      "stateMutability": "view",
      "type": "function"
    },
    {
      "inputs": [],
      "name": "getAllDefaultCharacters",
      "outputs": [
        {
          "components": [
            {
              "internalType": "uint256",
              "name": "characterIndex",
              "type": "uint256"
            },
            {
              "internalType": "uint256",
              "name": "hp",
              "type": "uint256"
            },
            {
              "internalType": "uint256",
              "name": "maxHp",
              "type": "uint256"
            },
            {
              "internalType": "uint256",
              "name": "attackDamage",
              "type": "uint256"
            },
            {
              "internalType": "string",
              "name": "name",
              "type": "string"
            },
            {
              "internalType": "string",
              "name": "imageURI",
              "type": "string"
            }
          ],
          "internalType": "struct MyEpicGame.CharacterAttributes[]",
          "name": "",
          "type": "tuple[]"
        }
      ],
      "stateMutability": "view",
      "type": "function"
    },
    {
      "inputs": [
        {
          "internalType": "uint256",
          "name": "tokenId",
          "type": "uint256"
        }
      ],
      "name": "getApproved",
      "outputs": [
        {
          "internalType": "address",
          "name": "",
          "type": "address"
        }
      ],
      "stateMutability": "view",
      "type": "function"
    },
    {
      "inputs": [],
      "name": "getBigBoss",
      "outputs": [
        {
          "components": [
            {
              "internalType": "string",
              "name": "name",
              "type": "string"
            },
            {
              "internalType": "string",
              "name": "imageURI",
              "type": "string"
            },
            {
              "internalType": "uint256",
              "name": "hp",
              "type": "uint256"
            },
            {
              "internalType": "uint256",
              "name": "maxHp",
              "type": "uint256"
            },
            {
              "internalType": "uint256",
              "name": "attackDamage",
              "type": "uint256"
            }
          ],
          "internalType": "struct MyEpicGame.BigBoss",
          "name": "",
          "type": "tuple"
        }
      ],
      "stateMutability": "view",
      "type": "function"
    },
    {
      "inputs": [
        {
          "internalType": "address",
          "name": "owner",
          "type": "address"
        },
        {
          "internalType": "address",
          "name": "operator",
          "type": "address"
        }
      ],
      "name": "isApprovedForAll",
      "outputs": [
        {
          "internalType": "bool",
          "name": "",
          "type": "bool"
        }
      ],
      "stateMutability": "view",
      "type": "function"
    },
    {
      "inputs": [
        {
          "internalType": "uint256",
          "name": "_characterIndex",
          "type": "uint256"
        }
      ],
      "name": "mintCharacterNFT",
      "outputs": [],
      "stateMutability": "nonpayable",
      "type": "function"
    },
    {
      "inputs": [],
      "name": "name",
      "outputs": [
        {
          "internalType": "string",
          "name": "",
          "type": "string"
        }
      ],
      "stateMutability": "view",
      "type": "function"
    },
    {
      "inputs": [
        {
          "internalType": "uint256",
          "name": "",
          "type": "uint256"
        }
      ],
      "name": "nftHolderAttributes",
      "outputs": [
        {
          "internalType": "uint256",
          "name": "characterIndex",
          "type": "uint256"
        },
        {
          "internalType": "uint256",
          "name": "hp",
          "type": "uint256"
        },
        {
          "internalType": "uint256",
          "name": "maxHp",
          "type": "uint256"
        },
        {
          "internalType": "uint256",
          "name": "attackDamage",
          "type": "uint256"
        },
        {
          "internalType": "string",
          "name": "name",
          "type": "string"
        },
        {
          "internalType": "string",
          "name": "imageURI",
          "type": "string"
        }
      ],
      "stateMutability": "view",
      "type": "function"
    },
    {
      "inputs": [
        {
          "internalType": "address",
          "name": "",
          "type": "address"
        }
      ],
      "name": "nftHolders",
      "outputs": [
        {
          "internalType": "uint256",
          "name": "",
          "type": "uint256"
        }
      ],
      "stateMutability": "view",
      "type": "function"
    },
    {
      "inputs": [
        {
          "internalType": "uint256",
          "name": "tokenId",
          "type": "uint256"
        }
      ],
      "name": "ownerOf",
      "outputs": [
        {
          "internalType": "address",
          "name": "",
          "type": "address"
        }
      ],
      "stateMutability": "view",
      "type": "function"
    },
    {
      "inputs": [
        {
          "internalType": "address",
          "name": "from",
          "type": "address"
        },
        {
          "internalType": "address",
          "name": "to",
          "type": "address"
        },
        {
          "internalType": "uint256",
          "name": "tokenId",
          "type": "uint256"
        }
      ],
      "name": "safeTransferFrom",
      "outputs": [],
      "stateMutability": "nonpayable",
      "type": "function"
    },
    {
      "inputs": [
        {
          "internalType": "address",
          "name": "from",
          "type": "address"
        },
        {
          "internalType": "address",
          "name": "to",
          "type": "address"
        },
        {
          "internalType": "uint256",
          "name": "tokenId",
          "type": "uint256"
        },
        {
          "internalType": "bytes",
          "name": "data",
          "type": "bytes"
        }
      ],
      "name": "safeTransferFrom",
      "outputs": [],
      "stateMutability": "nonpayable",
      "type": "function"
    },
    {
      "inputs": [
        {
          "internalType": "address",
          "name": "operator",
          "type": "address"
        },
        {
          "internalType": "bool",
          "name": "approved",
          "type": "bool"
        }
      ],
      "name": "setApprovalForAll",
      "outputs": [],
      "stateMutability": "nonpayable",
      "type": "function"
    },
    {
      "inputs": [
        {
          "internalType": "bytes4",
          "name": "interfaceId",
          "type": "bytes4"
        }
      ],
      "name": "supportsInterface",
      "outputs": [
        {
          "internalType": "bool",
          "name": "",
          "type": "bool"
        }
      ],
      "stateMutability": "view",
      "type": "function"
    },
    {
      "inputs": [],
      "name": "symbol",
      "outputs": [
        {
          "internalType": "string",
          "name": "",
          "type": "string"
        }
      ],
      "stateMutability": "view",
      "type": "function"
    },
    {
      "inputs": [
        {
          "internalType": "uint256",
          "name": "_tokenId",
          "type": "uint256"
        }
      ],
      "name": "tokenURI",
      "outputs": [
        {
          "internalType": "string",
          "name": "",
          "type": "string"
        }
      ],
      "stateMutability": "view",
      "type": "function"
    },
    {
      "inputs": [
        {
          "internalType": "address",
          "name": "from",
          "type": "address"
        },
        {
          "internalType": "address",
          "name": "to",
          "type": "address"
        },
        {
          "internalType": "uint256",
          "name": "tokenId",
          "type": "uint256"
        }
      ],
      "name": "transferFrom",
      "outputs": [],
      "stateMutability": "nonpayable",
      "type": "function"
    }
  ],
  "bytecode": "0x60806040523480156200001157600080fd5b506040516200565038038062005650833981810160405281019062000037919062000b6f565b6040518060400160405280600881526020017f4f6e6550696563650000000000000000000000000000000000000000000000008152506040518060400160405280600881526020017f4f4e4550494543450000000000000000000000000000000000000000000000008152508160009080519060200190620000bb92919062000715565b508060019080519060200190620000d492919062000715565b5050506040518060a0016040528085815260200184815260200183815260200183815260200182815250600660008201518160000190805190602001906200011e92919062000715565b5060208201518160010190805190602001906200013d92919062000715565b50604082015181600201556060820151816003015560808201518160040155905050620002c06040518060600160405280602a815260200162005626602a9139600660000180546200018f9062000d21565b80601f0160208091040260200160405190810160405280929190818152602001828054620001bd9062000d21565b80156200020e5780601f10620001e2576101008083540402835291602001916200020e565b820191906000526020600020905b815481529060010190602001808311620001f057829003601f168201915b5050505050600660020154600660010180546200022b9062000d21565b80601f0160208091040260200160405190810160405280929190818152602001828054620002599062000d21565b8015620002aa5780601f106200027e57610100808354040283529160200191620002aa565b820191906000526020600020905b8154815290600101906020018083116200028c57829003601f168201915b50505050506200062a60201b62001ad81760201c565b60005b88518110156200060457600c6040518060c00160405280838152602001898481518110620002f657620002f562000d57565b5b6020026020010151815260200189848151811062000319576200031862000d57565b5b602002602001015181526020018884815181106200033c576200033b62000d57565b5b602002602001015181526020018b84815181106200035f576200035e62000d57565b5b602002602001015181526020018a848151811062000382576200038162000d57565b5b60200260200101518152509080600181540180825580915050600190039060005260206000209060060201600090919091909150600082015181600001556020820151816001015560408201518160020155606082015181600301556080820151816004019080519060200190620003fc92919062000715565b5060a08201518160050190805190602001906200041b92919062000715565b5050506000600c828154811062000437576200043662000d57565b5b90600052602060002090600602016040518060c0016040529081600082015481526020016001820154815260200160028201548152602001600382015481526020016004820180546200048a9062000d21565b80601f0160208091040260200160405190810160405280929190818152602001828054620004b89062000d21565b8015620005095780601f10620004dd5761010080835404028352916020019162000509565b820191906000526020600020905b815481529060010190602001808311620004eb57829003601f168201915b50505050508152602001600582018054620005249062000d21565b80601f0160208091040260200160405190810160405280929190818152602001828054620005529062000d21565b8015620005a35780601f106200057757610100808354040283529160200191620005a3565b820191906000526020600020905b8154815290600101906020018083116200058557829003601f168201915b5050505050815250509050620005ec6040518060600160405280602581526020016200560160259139826080015183602001518460a001516200062a60201b62001ad81760201c565b50600181620005fc919062000db5565b9050620002c3565b506200061c600b620006d660201b62001b7a1760201c565b505050505050505062000ee2565b620006d08484848460405160240162000647949392919062000e80565b6040516020818303038152906040527f5d1a971a000000000000000000000000000000000000000000000000000000007bffffffffffffffffffffffffffffffffffffffffffffffffffffffff19166020820180517bffffffffffffffffffffffffffffffffffffffffffffffffffffffff8381831617835250505050620006ec60201b60201c565b50505050565b6001816000016000828254019250508190555050565b60008151905060006a636f6e736f6c652e6c6f679050602083016000808483855afa5050505050565b828054620007239062000d21565b90600052602060002090601f01602090048101928262000747576000855562000793565b82601f106200076257805160ff191683800117855562000793565b8280016001018555821562000793579182015b828111156200079257825182559160200191906001019062000775565b5b509050620007a29190620007a6565b5090565b5b80821115620007c1576000816000905550600101620007a7565b5090565b6000604051905090565b600080fd5b600080fd5b600080fd5b6000601f19601f8301169050919050565b7f4e487b7100000000000000000000000000000000000000000000000000000000600052604160045260246000fd5b6200082982620007de565b810181811067ffffffffffffffff821117156200084b576200084a620007ef565b5b80604052505050565b600062000860620007c5565b90506200086e82826200081e565b919050565b600067ffffffffffffffff821115620008915762000890620007ef565b5b602082029050602081019050919050565b600080fd5b600080fd5b600067ffffffffffffffff821115620008ca57620008c9620007ef565b5b620008d582620007de565b9050602081019050919050565b60005b8381101562000902578082015181840152602081019050620008e5565b8381111562000912576000848401525b50505050565b60006200092f6200092984620008ac565b62000854565b9050828152602081018484840111156200094e576200094d620008a7565b5b6200095b848285620008e2565b509392505050565b600082601f8301126200097b576200097a620007d9565b5b81516200098d84826020860162000918565b91505092915050565b6000620009ad620009a78462000873565b62000854565b90508083825260208201905060208402830185811115620009d357620009d2620008a2565b5b835b8181101562000a2157805167ffffffffffffffff811115620009fc57620009fb620007d9565b5b80860162000a0b898262000963565b85526020850194505050602081019050620009d5565b5050509392505050565b600082601f83011262000a435762000a42620007d9565b5b815162000a5584826020860162000996565b91505092915050565b600067ffffffffffffffff82111562000a7c5762000a7b620007ef565b5b602082029050602081019050919050565b6000819050919050565b62000aa28162000a8d565b811462000aae57600080fd5b50565b60008151905062000ac28162000a97565b92915050565b600062000adf62000ad98462000a5e565b62000854565b9050808382526020820190506020840283018581111562000b055762000b04620008a2565b5b835b8181101562000b32578062000b1d888262000ab1565b84526020840193505060208101905062000b07565b5050509392505050565b600082601f83011262000b545762000b53620007d9565b5b815162000b6684826020860162000ac8565b91505092915050565b600080600080600080600080610100898b03121562000b935762000b92620007cf565b5b600089015167ffffffffffffffff81111562000bb45762000bb3620007d4565b5b62000bc28b828c0162000a2b565b985050602089015167ffffffffffffffff81111562000be65762000be5620007d4565b5b62000bf48b828c0162000a2b565b975050604089015167ffffffffffffffff81111562000c185762000c17620007d4565b5b62000c268b828c0162000b3c565b965050606089015167ffffffffffffffff81111562000c4a5762000c49620007d4565b5b62000c588b828c0162000b3c565b955050608089015167ffffffffffffffff81111562000c7c5762000c7b620007d4565b5b62000c8a8b828c0162000963565b94505060a089015167ffffffffffffffff81111562000cae5762000cad620007d4565b5b62000cbc8b828c0162000963565b93505060c062000ccf8b828c0162000ab1565b92505060e062000ce28b828c0162000ab1565b9150509295985092959890939650565b7f4e487b7100000000000000000000000000000000000000000000000000000000600052602260045260246000fd5b6000600282049050600182168062000d3a57607f821691505b6020821081141562000d515762000d5062000cf2565b5b50919050565b7f4e487b7100000000000000000000000000000000000000000000000000000000600052603260045260246000fd5b7f4e487b7100000000000000000000000000000000000000000000000000000000600052601160045260246000fd5b600062000dc28262000a8d565b915062000dcf8362000a8d565b9250827fffffffffffffffffffffffffffffffffffffffffffffffffffffffffffffffff0382111562000e075762000e0662000d86565b5b828201905092915050565b600081519050919050565b600082825260208201905092915050565b600062000e3b8262000e12565b62000e47818562000e1d565b935062000e59818560208601620008e2565b62000e6481620007de565b840191505092915050565b62000e7a8162000a8d565b82525050565b6000608082019050818103600083015262000e9c818762000e2e565b9050818103602083015262000eb2818662000e2e565b905062000ec3604083018562000e6f565b818103606083015262000ed7818462000e2e565b905095945050505050565b61470f8062000ef26000396000f3fe608060405234801561001057600080fd5b50600436106101375760003560e01c8063942ecc40116100b8578063b88d4fde1161007c578063b88d4fde1461036b578063b953084e14610387578063c87b56dd146103a5578063d4f24c5b146103d5578063e985e9c5146103df578063f8b81ef71461040f57610137565b8063942ecc40146102bc57806395d89b41146102da57806398da4c95146102f8578063a22cb4651461032d578063a9c326791461034957610137565b806323b872dd116100ff57806323b872dd146101f457806342842e0e146102105780636352211e1461022c57806370a082311461025c5780637df124a11461028c57610137565b806301ffc9a71461013c5780630665f9611461016c57806306fdde031461018a578063081812fc146101a8578063095ea7b3146101d8575b600080fd5b61015660048036038101906101519190612ccf565b61042b565b6040516101639190612d17565b60405180910390f35b61017461050d565b6040516101819190612e61565b60405180910390f35b610192610669565b60405161019f9190612ecd565b60405180910390f35b6101c260048036038101906101bd9190612f1b565b6106fb565b6040516101cf9190612f89565b60405180910390f35b6101f260048036038101906101ed9190612fd0565b610741565b005b61020e60048036038101906102099190613010565b610859565b005b61022a60048036038101906102259190613010565b6108b9565b005b61024660048036038101906102419190612f1b565b6108d9565b6040516102539190612f89565b60405180910390f35b61027660048036038101906102719190613063565b61098b565b604051610283919061309f565b60405180910390f35b6102a660048036038101906102a19190613063565b610a43565b6040516102b3919061309f565b60405180910390f35b6102c4610a5b565b6040516102d1919061314a565b60405180910390f35b6102e2610c33565b6040516102ef9190612ecd565b60405180910390f35b610312600480360381019061030d9190612f1b565b610cc5565b6040516103249695949392919061316c565b60405180910390f35b61034760048036038101906103429190613207565b610e11565b005b610351610e27565b604051610362959493929190613247565b60405180910390f35b610385600480360381019061038091906133dd565b610f5b565b005b61038f610fbd565b60405161039c91906135b2565b60405180910390f35b6103bf60048036038101906103ba9190612f1b565b611168565b6040516103cc9190612ecd565b60405180910390f35b6103dd611383565b005b6103f960048036038101906103f491906135d4565b61170e565b6040516104069190612d17565b60405180910390f35b61042960048036038101906104249190612f1b565b6117a2565b005b60007f80ac58cd000000000000000000000000000000000000000000000000000000007bffffffffffffffffffffffffffffffffffffffffffffffffffffffff1916827bffffffffffffffffffffffffffffffffffffffffffffffffffffffff191614806104f657507f5b5e139f000000000000000000000000000000000000000000000000000000007bffffffffffffffffffffffffffffffffffffffffffffffffffffffff1916827bffffffffffffffffffffffffffffffffffffffffffffffffffffffff1916145b80610506575061050582611b90565b5b9050919050565b610515612b5b565b60066040518060a001604052908160008201805461053290613643565b80601f016020809104026020016040519081016040528092919081815260200182805461055e90613643565b80156105ab5780601f10610580576101008083540402835291602001916105ab565b820191906000526020600020905b81548152906001019060200180831161058e57829003601f168201915b505050505081526020016001820180546105c490613643565b80601f01602080910402602001604051908101604052809291908181526020018280546105f090613643565b801561063d5780601f106106125761010080835404028352916020019161063d565b820191906000526020600020905b81548152906001019060200180831161062057829003601f168201915b505050505081526020016002820154815260200160038201548152602001600482015481525050905090565b60606000805461067890613643565b80601f01602080910402602001604051908101604052809291908181526020018280546106a490613643565b80156106f15780601f106106c6576101008083540402835291602001916106f1565b820191906000526020600020905b8154815290600101906020018083116106d457829003601f168201915b5050505050905090565b600061070682611bfa565b6004600083815260200190815260200160002060009054906101000a900473ffffffffffffffffffffffffffffffffffffffff169050919050565b600061074c826108d9565b90508073ffffffffffffffffffffffffffffffffffffffff168373ffffffffffffffffffffffffffffffffffffffff1614156107bd576040517f08c379a00000000000000000000000000000000000000000000000000000000081526004016107b4906136e7565b60405180910390fd5b8073ffffffffffffffffffffffffffffffffffffffff166107dc611c45565b73ffffffffffffffffffffffffffffffffffffffff16148061080b575061080a81610805611c45565b61170e565b5b61084a576040517f08c379a000000000000000000000000000000000000000000000000000000000815260040161084190613779565b60405180910390fd5b6108548383611c4d565b505050565b61086a610864611c45565b82611d06565b6108a9576040517f08c379a00000000000000000000000000000000000000000000000000000000081526004016108a09061380b565b60405180910390fd5b6108b4838383611d9b565b505050565b6108d483838360405180602001604052806000815250610f5b565b505050565b6000806002600084815260200190815260200160002060009054906101000a900473ffffffffffffffffffffffffffffffffffffffff169050600073ffffffffffffffffffffffffffffffffffffffff168173ffffffffffffffffffffffffffffffffffffffff161415610982576040517f08c379a000000000000000000000000000000000000000000000000000000000815260040161097990613877565b60405180910390fd5b80915050919050565b60008073ffffffffffffffffffffffffffffffffffffffff168273ffffffffffffffffffffffffffffffffffffffff1614156109fc576040517f08c379a00000000000000000000000000000000000000000000000000000000081526004016109f390613909565b60405180910390fd5b600360008373ffffffffffffffffffffffffffffffffffffffff1673ffffffffffffffffffffffffffffffffffffffff168152602001908152602001600020549050919050565b600e6020528060005260406000206000915090505481565b610a63612b8a565b6000600e60003373ffffffffffffffffffffffffffffffffffffffff1673ffffffffffffffffffffffffffffffffffffffff1681526020019081526020016000205490506000811115610c2257600d60008281526020019081526020016000206040518060c001604052908160008201548152602001600182015481526020016002820154815260200160038201548152602001600482018054610b0690613643565b80601f0160208091040260200160405190810160405280929190818152602001828054610b3290613643565b8015610b7f5780601f10610b5457610100808354040283529160200191610b7f565b820191906000526020600020905b815481529060010190602001808311610b6257829003601f168201915b50505050508152602001600582018054610b9890613643565b80601f0160208091040260200160405190810160405280929190818152602001828054610bc490613643565b8015610c115780601f10610be657610100808354040283529160200191610c11565b820191906000526020600020905b815481529060010190602001808311610bf457829003601f168201915b505050505081525050915050610c30565b610c2a612b8a565b80925050505b90565b606060018054610c4290613643565b80601f0160208091040260200160405190810160405280929190818152602001828054610c6e90613643565b8015610cbb5780601f10610c9057610100808354040283529160200191610cbb565b820191906000526020600020905b815481529060010190602001808311610c9e57829003601f168201915b5050505050905090565b600d602052806000526040600020600091509050806000015490806001015490806002015490806003015490806004018054610d0090613643565b80601f0160208091040260200160405190810160405280929190818152602001828054610d2c90613643565b8015610d795780601f10610d4e57610100808354040283529160200191610d79565b820191906000526020600020905b815481529060010190602001808311610d5c57829003601f168201915b505050505090806005018054610d8e90613643565b80601f0160208091040260200160405190810160405280929190818152602001828054610dba90613643565b8015610e075780601f10610ddc57610100808354040283529160200191610e07565b820191906000526020600020905b815481529060010190602001808311610dea57829003601f168201915b5050505050905086565b610e23610e1c611c45565b8383612002565b5050565b6006806000018054610e3890613643565b80601f0160208091040260200160405190810160405280929190818152602001828054610e6490613643565b8015610eb15780601f10610e8657610100808354040283529160200191610eb1565b820191906000526020600020905b815481529060010190602001808311610e9457829003601f168201915b505050505090806001018054610ec690613643565b80601f0160208091040260200160405190810160405280929190818152602001828054610ef290613643565b8015610f3f5780601f10610f1457610100808354040283529160200191610f3f565b820191906000526020600020905b815481529060010190602001808311610f2257829003601f168201915b5050505050908060020154908060030154908060040154905085565b610f6c610f66611c45565b83611d06565b610fab576040517f08c379a0000000000000000000000000000000000000000000000000000000008152600401610fa29061380b565b60405180910390fd5b610fb78484848461216f565b50505050565b6060600c805480602002602001604051908101604052809291908181526020016000905b8282101561115f57838290600052602060002090600602016040518060c00160405290816000820154815260200160018201548152602001600282015481526020016003820154815260200160048201805461103c90613643565b80601f016020809104026020016040519081016040528092919081815260200182805461106890613643565b80156110b55780601f1061108a576101008083540402835291602001916110b5565b820191906000526020600020905b81548152906001019060200180831161109857829003601f168201915b505050505081526020016005820180546110ce90613643565b80601f01602080910402602001604051908101604052809291908181526020018280546110fa90613643565b80156111475780601f1061111c57610100808354040283529160200191611147565b820191906000526020600020905b81548152906001019060200180831161112a57829003601f168201915b50505050508152505081526020019060010190610fe1565b50505050905090565b60606000600d60008481526020019081526020016000206040518060c0016040529081600082015481526020016001820154815260200160028201548152602001600382015481526020016004820180546111c290613643565b80601f01602080910402602001604051908101604052809291908181526020018280546111ee90613643565b801561123b5780601f106112105761010080835404028352916020019161123b565b820191906000526020600020905b81548152906001019060200180831161121e57829003601f168201915b5050505050815260200160058201805461125490613643565b80601f016020809104026020016040519081016040528092919081815260200182805461128090613643565b80156112cd5780601f106112a2576101008083540402835291602001916112cd565b820191906000526020600020905b8154815290600101906020018083116112b057829003601f168201915b505050505081525050905060006112e782602001516121cb565b905060006112f883604001516121cb565b9050600061130984606001516121cb565b9050600061134f856080015161131e896121cb565b8760a0015187878760405160200161133b96959493929190613c37565b60405160208183030381529060405261232c565b90506000816040516020016113649190613d28565b6040516020818303038152906040529050809650505050505050919050565b6000600e60003373ffffffffffffffffffffffffffffffffffffffff1673ffffffffffffffffffffffffffffffffffffffff1681526020019081526020016000205490506000600d600083815260200190815260200160002090506114966040518060600160405280603c815260200161469e603c913982600401805461140990613643565b80601f016020809104026020016040519081016040528092919081815260200182805461143590613643565b80156114825780601f1061145757610100808354040283529160200191611482565b820191906000526020600020905b81548152906001019060200180831161146557829003601f168201915b5050505050836001015484600301546124c4565b61156e6040518060400160405280601b81526020017f426f73732025732068617320257320485020616e642025732041440000000000815250600660000180546114df90613643565b80601f016020809104026020016040519081016040528092919081815260200182805461150b90613643565b80156115585780601f1061152d57610100808354040283529160200191611558565b820191906000526020600020905b81548152906001019060200180831161153b57829003601f168201915b50505050506006600201546006600401546124c4565b60008160010154116115b5576040517f08c379a00000000000000000000000000000000000000000000000000000000081526004016115ac90613dbc565b60405180910390fd5b6000600660020154116115fd576040517f08c379a00000000000000000000000000000000000000000000000000000000081526004016115f490613e4e565b60405180910390fd5b8060030154600660020154101561161e57600060066002018190555061163d565b80600301546006600201546116339190613e9d565b6006600201819055505b6006600401548160010154101561165d576000816001018190555061167b565b60066004015481600101546116729190613e9d565b81600101819055505b6116a26040518060600160405280602581526020016145e360259139600660020154612566565b6116c8604051806060016040528060288152602001614648602891398260010154612566565b7f838ab28464562786a6c4ab2311964b82fa60bd9b14aa7e856af1f3f18d41a4146006600201548260010154604051611702929190613ed1565b60405180910390a15050565b6000600560008473ffffffffffffffffffffffffffffffffffffffff1673ffffffffffffffffffffffffffffffffffffffff16815260200190815260200160002060008373ffffffffffffffffffffffffffffffffffffffff1673ffffffffffffffffffffffffffffffffffffffff16815260200190815260200160002060009054906101000a900460ff16905092915050565b60006117ae600b612602565b90506117ba3382612610565b6040518060c00160405280838152602001600c84815481106117df576117de613efa565b5b9060005260206000209060060201600101548152602001600c848154811061180a57611809613efa565b5b9060005260206000209060060201600201548152602001600c848154811061183557611834613efa565b5b9060005260206000209060060201600301548152602001600c84815481106118605761185f613efa565b5b9060005260206000209060060201600401805461187c90613643565b80601f01602080910402602001604051908101604052809291908181526020018280546118a890613643565b80156118f55780601f106118ca576101008083540402835291602001916118f5565b820191906000526020600020905b8154815290600101906020018083116118d857829003601f168201915b50505050508152602001600c848154811061191357611912613efa565b5b9060005260206000209060060201600501805461192f90613643565b80601f016020809104026020016040519081016040528092919081815260200182805461195b90613643565b80156119a85780601f1061197d576101008083540402835291602001916119a8565b820191906000526020600020905b81548152906001019060200180831161198b57829003601f168201915b5050505050815250600d6000838152602001908152602001600020600082015181600001556020820151816001015560408201518160020155606082015181600301556080820151816004019080519060200190611a07929190612bc0565b5060a0820151816005019080519060200190611a24929190612bc0565b50905050611a4b6040518060600160405280602e8152602001614670602e9139828461262e565b80600e60003373ffffffffffffffffffffffffffffffffffffffff1673ffffffffffffffffffffffffffffffffffffffff16815260200190815260200160002081905550611a99600b611b7a565b7f4bc303fd457a97b4691b9af582ce71868a3d258638c8d4f8c60988a0f0bfb8cd338284604051611acc93929190613f29565b60405180910390a15050565b611b7484848484604051602401611af29493929190613f60565b6040516020818303038152906040527f5d1a971a000000000000000000000000000000000000000000000000000000007bffffffffffffffffffffffffffffffffffffffffffffffffffffffff19166020820180517bffffffffffffffffffffffffffffffffffffffffffffffffffffffff83818316178352505050506126cd565b50505050565b6001816000016000828254019250508190555050565b60007f01ffc9a7000000000000000000000000000000000000000000000000000000007bffffffffffffffffffffffffffffffffffffffffffffffffffffffff1916827bffffffffffffffffffffffffffffffffffffffffffffffffffffffff1916149050919050565b611c03816126f6565b611c42576040517f08c379a0000000000000000000000000000000000000000000000000000000008152600401611c3990613877565b60405180910390fd5b50565b600033905090565b816004600083815260200190815260200160002060006101000a81548173ffffffffffffffffffffffffffffffffffffffff021916908373ffffffffffffffffffffffffffffffffffffffff160217905550808273ffffffffffffffffffffffffffffffffffffffff16611cc0836108d9565b73ffffffffffffffffffffffffffffffffffffffff167f8c5be1e5ebec7d5bd14f71427d1e84f3dd0314c0f7b2291e5b200ac8c7c3b92560405160405180910390a45050565b600080611d12836108d9565b90508073ffffffffffffffffffffffffffffffffffffffff168473ffffffffffffffffffffffffffffffffffffffff161480611d545750611d53818561170e565b5b80611d9257508373ffffffffffffffffffffffffffffffffffffffff16611d7a846106fb565b73ffffffffffffffffffffffffffffffffffffffff16145b91505092915050565b8273ffffffffffffffffffffffffffffffffffffffff16611dbb826108d9565b73ffffffffffffffffffffffffffffffffffffffff1614611e11576040517f08c379a0000000000000000000000000000000000000000000000000000000008152600401611e089061402c565b60405180910390fd5b600073ffffffffffffffffffffffffffffffffffffffff168273ffffffffffffffffffffffffffffffffffffffff161415611e81576040517f08c379a0000000000000000000000000000000000000000000000000000000008152600401611e78906140be565b60405180910390fd5b611e8c838383612762565b611e97600082611c4d565b6001600360008573ffffffffffffffffffffffffffffffffffffffff1673ffffffffffffffffffffffffffffffffffffffff1681526020019081526020016000206000828254611ee79190613e9d565b925050819055506001600360008473ffffffffffffffffffffffffffffffffffffffff1673ffffffffffffffffffffffffffffffffffffffff1681526020019081526020016000206000828254611f3e91906140de565b92505081905550816002600083815260200190815260200160002060006101000a81548173ffffffffffffffffffffffffffffffffffffffff021916908373ffffffffffffffffffffffffffffffffffffffff160217905550808273ffffffffffffffffffffffffffffffffffffffff168473ffffffffffffffffffffffffffffffffffffffff167fddf252ad1be2c89b69c2b068fc378daa952ba7f163c4a11628f55a4df523b3ef60405160405180910390a4611ffd838383612767565b505050565b8173ffffffffffffffffffffffffffffffffffffffff168373ffffffffffffffffffffffffffffffffffffffff161415612071576040517f08c379a000000000000000000000000000000000000000000000000000000000815260040161206890614180565b60405180910390fd5b80600560008573ffffffffffffffffffffffffffffffffffffffff1673ffffffffffffffffffffffffffffffffffffffff16815260200190815260200160002060008473ffffffffffffffffffffffffffffffffffffffff1673ffffffffffffffffffffffffffffffffffffffff16815260200190815260200160002060006101000a81548160ff0219169083151502179055508173ffffffffffffffffffffffffffffffffffffffff168373ffffffffffffffffffffffffffffffffffffffff167f17307eab39ab6107e8899845ad3d59bd9653f200f220920489ca2b5937696c31836040516121629190612d17565b60405180910390a3505050565b61217a848484611d9b565b6121868484848461276c565b6121c5576040517f08c379a00000000000000000000000000000000000000000000000000000000081526004016121bc90614212565b60405180910390fd5b50505050565b60606000821415612213576040518060400160405280600181526020017f30000000000000000000000000000000000000000000000000000000000000008152509050612327565b600082905060005b6000821461224557808061222e90614232565b915050600a8261223e91906142aa565b915061221b565b60008167ffffffffffffffff811115612261576122606132b2565b5b6040519080825280601f01601f1916602001820160405280156122935781602001600182028036833780820191505090505b5090505b60008514612320576001826122ac9190613e9d565b9150600a856122bb91906142db565b60306122c791906140de565b60f81b8183815181106122dd576122dc613efa565b5b60200101907effffffffffffffffffffffffffffffffffffffffffffffffffffffffffffff1916908160001a905350600a8561231991906142aa565b9450612297565b8093505050505b919050565b6060600082519050600081141561235557604051806020016040528060008152509150506124bf565b6000600360028361236691906140de565b61237091906142aa565b600461237c919061430c565b9050600060208261238d91906140de565b67ffffffffffffffff8111156123a6576123a56132b2565b5b6040519080825280601f01601f1916602001820160405280156123d85781602001600182028036833780820191505090505b5090506000604051806060016040528060408152602001614608604091399050600181016020830160005b8681101561247c5760038101905062ffffff818a015116603f8160121c168401518060081b905060ff603f83600c1c1686015116810190508060081b905060ff603f8360061c1686015116810190508060081b905060ff603f831686015116810190508060e01b90508084526004840193505050612403565b50600386066001811461249657600281146124a6576124b1565b613d3d60f01b60028303526124b1565b603d60f81b60018303525b508484525050819450505050505b919050565b612560848484846040516024016124de9493929190614366565b6040516020818303038152906040527ff45d7d2c000000000000000000000000000000000000000000000000000000007bffffffffffffffffffffffffffffffffffffffffffffffffffffffff19166020820180517bffffffffffffffffffffffffffffffffffffffffffffffffffffffff83818316178352505050506126cd565b50505050565b6125fe828260405160240161257c9291906143b9565b6040516020818303038152906040527fb60e72cc000000000000000000000000000000000000000000000000000000007bffffffffffffffffffffffffffffffffffffffffffffffffffffffff19166020820180517bffffffffffffffffffffffffffffffffffffffffffffffffffffffff83818316178352505050506126cd565b5050565b600081600001549050919050565b61262a828260405180602001604052806000815250612903565b5050565b6126c8838383604051602401612646939291906143e9565b6040516020818303038152906040527fca47c4eb000000000000000000000000000000000000000000000000000000007bffffffffffffffffffffffffffffffffffffffffffffffffffffffff19166020820180517bffffffffffffffffffffffffffffffffffffffffffffffffffffffff83818316178352505050506126cd565b505050565b60008151905060006a636f6e736f6c652e6c6f679050602083016000808483855afa5050505050565b60008073ffffffffffffffffffffffffffffffffffffffff166002600084815260200190815260200160002060009054906101000a900473ffffffffffffffffffffffffffffffffffffffff1673ffffffffffffffffffffffffffffffffffffffff1614159050919050565b505050565b505050565b600061278d8473ffffffffffffffffffffffffffffffffffffffff1661295e565b156128f6578373ffffffffffffffffffffffffffffffffffffffff1663150b7a026127b6611c45565b8786866040518563ffffffff1660e01b81526004016127d8949392919061447c565b602060405180830381600087803b1580156127f257600080fd5b505af192505050801561282357506040513d601f19601f8201168201806040525081019061282091906144dd565b60015b6128a6573d8060008114612853576040519150601f19603f3d011682016040523d82523d6000602084013e612858565b606091505b5060008151141561289e576040517f08c379a000000000000000000000000000000000000000000000000000000000815260040161289590614212565b60405180910390fd5b805181602001fd5b63150b7a0260e01b7bffffffffffffffffffffffffffffffffffffffffffffffffffffffff1916817bffffffffffffffffffffffffffffffffffffffffffffffffffffffff1916149150506128fb565b600190505b949350505050565b61290d8383612981565b61291a600084848461276c565b612959576040517f08c379a000000000000000000000000000000000000000000000000000000000815260040161295090614212565b60405180910390fd5b505050565b6000808273ffffffffffffffffffffffffffffffffffffffff163b119050919050565b600073ffffffffffffffffffffffffffffffffffffffff168273ffffffffffffffffffffffffffffffffffffffff1614156129f1576040517f08c379a00000000000000000000000000000000000000000000000000000000081526004016129e890614556565b60405180910390fd5b6129fa816126f6565b15612a3a576040517f08c379a0000000000000000000000000000000000000000000000000000000008152600401612a31906145c2565b60405180910390fd5b612a4660008383612762565b6001600360008473ffffffffffffffffffffffffffffffffffffffff1673ffffffffffffffffffffffffffffffffffffffff1681526020019081526020016000206000828254612a9691906140de565b92505081905550816002600083815260200190815260200160002060006101000a81548173ffffffffffffffffffffffffffffffffffffffff021916908373ffffffffffffffffffffffffffffffffffffffff160217905550808273ffffffffffffffffffffffffffffffffffffffff16600073ffffffffffffffffffffffffffffffffffffffff167fddf252ad1be2c89b69c2b068fc378daa952ba7f163c4a11628f55a4df523b3ef60405160405180910390a4612b5760008383612767565b5050565b6040518060a0016040528060608152602001606081526020016000815260200160008152602001600081525090565b6040518060c001604052806000815260200160008152602001600081526020016000815260200160608152602001606081525090565b828054612bcc90613643565b90600052602060002090601f016020900481019282612bee5760008555612c35565b82601f10612c0757805160ff1916838001178555612c35565b82800160010185558215612c35579182015b82811115612c34578251825591602001919060010190612c19565b5b509050612c429190612c46565b5090565b5b80821115612c5f576000816000905550600101612c47565b5090565b6000604051905090565b600080fd5b600080fd5b60007fffffffff0000000000000000000000000000000000000000000000000000000082169050919050565b612cac81612c77565b8114612cb757600080fd5b50565b600081359050612cc981612ca3565b92915050565b600060208284031215612ce557612ce4612c6d565b5b6000612cf384828501612cba565b91505092915050565b60008115159050919050565b612d1181612cfc565b82525050565b6000602082019050612d2c6000830184612d08565b92915050565b600081519050919050565b600082825260208201905092915050565b60005b83811015612d6c578082015181840152602081019050612d51565b83811115612d7b576000848401525b50505050565b6000601f19601f8301169050919050565b6000612d9d82612d32565b612da78185612d3d565b9350612db7818560208601612d4e565b612dc081612d81565b840191505092915050565b6000819050919050565b612dde81612dcb565b82525050565b600060a0830160008301518482036000860152612e018282612d92565b91505060208301518482036020860152612e1b8282612d92565b9150506040830151612e306040860182612dd5565b506060830151612e436060860182612dd5565b506080830151612e566080860182612dd5565b508091505092915050565b60006020820190508181036000830152612e7b8184612de4565b905092915050565b600082825260208201905092915050565b6000612e9f82612d32565b612ea98185612e83565b9350612eb9818560208601612d4e565b612ec281612d81565b840191505092915050565b60006020820190508181036000830152612ee78184612e94565b905092915050565b612ef881612dcb565b8114612f0357600080fd5b50565b600081359050612f1581612eef565b92915050565b600060208284031215612f3157612f30612c6d565b5b6000612f3f84828501612f06565b91505092915050565b600073ffffffffffffffffffffffffffffffffffffffff82169050919050565b6000612f7382612f48565b9050919050565b612f8381612f68565b82525050565b6000602082019050612f9e6000830184612f7a565b92915050565b612fad81612f68565b8114612fb857600080fd5b50565b600081359050612fca81612fa4565b92915050565b60008060408385031215612fe757612fe6612c6d565b5b6000612ff585828601612fbb565b925050602061300685828601612f06565b9150509250929050565b60008060006060848603121561302957613028612c6d565b5b600061303786828701612fbb565b935050602061304886828701612fbb565b925050604061305986828701612f06565b9150509250925092565b60006020828403121561307957613078612c6d565b5b600061308784828501612fbb565b91505092915050565b61309981612dcb565b82525050565b60006020820190506130b46000830184613090565b92915050565b600060c0830160008301516130d26000860182612dd5565b5060208301516130e56020860182612dd5565b5060408301516130f86040860182612dd5565b50606083015161310b6060860182612dd5565b50608083015184820360808601526131238282612d92565b91505060a083015184820360a086015261313d8282612d92565b9150508091505092915050565b6000602082019050818103600083015261316481846130ba565b905092915050565b600060c0820190506131816000830189613090565b61318e6020830188613090565b61319b6040830187613090565b6131a86060830186613090565b81810360808301526131ba8185612e94565b905081810360a08301526131ce8184612e94565b9050979650505050505050565b6131e481612cfc565b81146131ef57600080fd5b50565b600081359050613201816131db565b92915050565b6000806040838503121561321e5761321d612c6d565b5b600061322c85828601612fbb565b925050602061323d858286016131f2565b9150509250929050565b600060a08201905081810360008301526132618188612e94565b905081810360208301526132758187612e94565b90506132846040830186613090565b6132916060830185613090565b61329e6080830184613090565b9695505050505050565b600080fd5b600080fd5b7f4e487b7100000000000000000000000000000000000000000000000000000000600052604160045260246000fd5b6132ea82612d81565b810181811067ffffffffffffffff82111715613309576133086132b2565b5b80604052505050565b600061331c612c63565b905061332882826132e1565b919050565b600067ffffffffffffffff821115613348576133476132b2565b5b61335182612d81565b9050602081019050919050565b82818337600083830152505050565b600061338061337b8461332d565b613312565b90508281526020810184848401111561339c5761339b6132ad565b5b6133a784828561335e565b509392505050565b600082601f8301126133c4576133c36132a8565b5b81356133d484826020860161336d565b91505092915050565b600080600080608085870312156133f7576133f6612c6d565b5b600061340587828801612fbb565b945050602061341687828801612fbb565b935050604061342787828801612f06565b925050606085013567ffffffffffffffff81111561344857613447612c72565b5b613454878288016133af565b91505092959194509250565b600081519050919050565b600082825260208201905092915050565b6000819050602082019050919050565b600060c0830160008301516134a46000860182612dd5565b5060208301516134b76020860182612dd5565b5060408301516134ca6040860182612dd5565b5060608301516134dd6060860182612dd5565b50608083015184820360808601526134f58282612d92565b91505060a083015184820360a086015261350f8282612d92565b9150508091505092915050565b6000613528838361348c565b905092915050565b6000602082019050919050565b600061354882613460565b613552818561346b565b9350836020820285016135648561347c565b8060005b858110156135a05784840389528151613581858261351c565b945061358c83613530565b925060208a01995050600181019050613568565b50829750879550505050505092915050565b600060208201905081810360008301526135cc818461353d565b905092915050565b600080604083850312156135eb576135ea612c6d565b5b60006135f985828601612fbb565b925050602061360a85828601612fbb565b9150509250929050565b7f4e487b7100000000000000000000000000000000000000000000000000000000600052602260045260246000fd5b6000600282049050600182168061365b57607f821691505b6020821081141561366f5761366e613614565b5b50919050565b7f4552433732313a20617070726f76616c20746f2063757272656e74206f776e6560008201527f7200000000000000000000000000000000000000000000000000000000000000602082015250565b60006136d1602183612e83565b91506136dc82613675565b604082019050919050565b60006020820190508181036000830152613700816136c4565b9050919050565b7f4552433732313a20617070726f76652063616c6c6572206973206e6f7420746f60008201527f6b656e206f776e6572206e6f7220617070726f76656420666f7220616c6c0000602082015250565b6000613763603e83612e83565b915061376e82613707565b604082019050919050565b6000602082019050818103600083015261379281613756565b9050919050565b7f4552433732313a2063616c6c6572206973206e6f7420746f6b656e206f776e6560008201527f72206e6f7220617070726f766564000000000000000000000000000000000000602082015250565b60006137f5602e83612e83565b915061380082613799565b604082019050919050565b60006020820190508181036000830152613824816137e8565b9050919050565b7f4552433732313a20696e76616c696420746f6b656e2049440000000000000000600082015250565b6000613861601883612e83565b915061386c8261382b565b602082019050919050565b6000602082019050818103600083015261389081613854565b9050919050565b7f4552433732313a2061646472657373207a65726f206973206e6f74206120766160008201527f6c6964206f776e65720000000000000000000000000000000000000000000000602082015250565b60006138f3602983612e83565b91506138fe82613897565b604082019050919050565b60006020820190508181036000830152613922816138e6565b9050919050565b600081905092915050565b7f7b226e616d65223a202200000000000000000000000000000000000000000000600082015250565b600061396a600a83613929565b915061397582613934565b600a82019050919050565b600061398b82612d32565b6139958185613929565b93506139a5818560208601612d4e565b80840191505092915050565b7f202d2d2d204e465420233a200000000000000000000000000000000000000000600082015250565b60006139e7600c83613929565b91506139f2826139b1565b600c82019050919050565b7f222c20226465736372697074696f6e223a20225468697320697320616e204e4660008201527f542074686174206c6574732070656f706c6520706c617920696e20746865206760208201527f616d65204d6574617665727320536c6179657221222c2022696d616765223a2060408201527f2200000000000000000000000000000000000000000000000000000000000000606082015250565b6000613aa5606183613929565b9150613ab0826139fd565b606182019050919050565b7f222c202261747472696275746573223a205b207b202274726169745f7479706560008201527f223a20224865616c746820506f696e7473222c202276616c7565223a20000000602082015250565b6000613b17603d83613929565b9150613b2282613abb565b603d82019050919050565b7f2c20226d61785f76616c7565223a000000000000000000000000000000000000600082015250565b6000613b63600e83613929565b9150613b6e82613b2d565b600e82019050919050565b7f7d2c207b202274726169745f74797065223a202241747461636b2044616d616760008201527f65222c202276616c7565223a2000000000000000000000000000000000000000602082015250565b6000613bd5602d83613929565b9150613be082613b79565b602d82019050919050565b7f7d205d7d00000000000000000000000000000000000000000000000000000000600082015250565b6000613c21600483613929565b9150613c2c82613beb565b600482019050919050565b6000613c428261395d565b9150613c4e8289613980565b9150613c59826139da565b9150613c658288613980565b9150613c7082613a98565b9150613c7c8287613980565b9150613c8782613b0a565b9150613c938286613980565b9150613c9e82613b56565b9150613caa8285613980565b9150613cb582613bc8565b9150613cc18284613980565b9150613ccc82613c14565b9150819050979650505050505050565b7f646174613a6170706c69636174696f6e2f6a736f6e3b6261736536342c000000600082015250565b6000613d12601d83613929565b9150613d1d82613cdc565b601d82019050919050565b6000613d3382613d05565b9150613d3f8284613980565b915081905092915050565b7f4572726f723a20636861726163746572206d757374206861766520485020746f60008201527f2061747461636b20626f73732e00000000000000000000000000000000000000602082015250565b6000613da6602d83612e83565b9150613db182613d4a565b604082019050919050565b60006020820190508181036000830152613dd581613d99565b9050919050565b7f4572726f723a20626f7373206d757374206861766520485020746f206174746160008201527f636b20636861726163746572732e000000000000000000000000000000000000602082015250565b6000613e38602e83612e83565b9150613e4382613ddc565b604082019050919050565b60006020820190508181036000830152613e6781613e2b565b9050919050565b7f4e487b7100000000000000000000000000000000000000000000000000000000600052601160045260246000fd5b6000613ea882612dcb565b9150613eb383612dcb565b925082821015613ec657613ec5613e6e565b5b828203905092915050565b6000604082019050613ee66000830185613090565b613ef36020830184613090565b9392505050565b7f4e487b7100000000000000000000000000000000000000000000000000000000600052603260045260246000fd5b6000606082019050613f3e6000830186612f7a565b613f4b6020830185613090565b613f586040830184613090565b949350505050565b60006080820190508181036000830152613f7a8187612e94565b90508181036020830152613f8e8186612e94565b9050613f9d6040830185613090565b8181036060830152613faf8184612e94565b905095945050505050565b7f4552433732313a207472616e736665722066726f6d20696e636f72726563742060008201527f6f776e6572000000000000000000000000000000000000000000000000000000602082015250565b6000614016602583612e83565b915061402182613fba565b604082019050919050565b6000602082019050818103600083015261404581614009565b9050919050565b7f4552433732313a207472616e7366657220746f20746865207a65726f2061646460008201527f7265737300000000000000000000000000000000000000000000000000000000602082015250565b60006140a8602483612e83565b91506140b38261404c565b604082019050919050565b600060208201905081810360008301526140d78161409b565b9050919050565b60006140e982612dcb565b91506140f483612dcb565b9250827fffffffffffffffffffffffffffffffffffffffffffffffffffffffffffffffff0382111561412957614128613e6e565b5b828201905092915050565b7f4552433732313a20617070726f766520746f2063616c6c657200000000000000600082015250565b600061416a601983612e83565b915061417582614134565b602082019050919050565b600060208201905081810360008301526141998161415d565b9050919050565b7f4552433732313a207472616e7366657220746f206e6f6e20455243373231526560008201527f63656976657220696d706c656d656e7465720000000000000000000000000000602082015250565b60006141fc603283612e83565b9150614207826141a0565b604082019050919050565b6000602082019050818103600083015261422b816141ef565b9050919050565b600061423d82612dcb565b91507fffffffffffffffffffffffffffffffffffffffffffffffffffffffffffffffff8214156142705761426f613e6e565b5b600182019050919050565b7f4e487b7100000000000000000000000000000000000000000000000000000000600052601260045260246000fd5b60006142b582612dcb565b91506142c083612dcb565b9250826142d0576142cf61427b565b5b828204905092915050565b60006142e682612dcb565b91506142f183612dcb565b9250826143015761430061427b565b5b828206905092915050565b600061431782612dcb565b915061432283612dcb565b9250817fffffffffffffffffffffffffffffffffffffffffffffffffffffffffffffffff048311821515161561435b5761435a613e6e565b5b828202905092915050565b600060808201905081810360008301526143808187612e94565b905081810360208301526143948186612e94565b90506143a36040830185613090565b6143b06060830184613090565b95945050505050565b600060408201905081810360008301526143d38185612e94565b90506143e26020830184613090565b9392505050565b600060608201905081810360008301526144038186612e94565b90506144126020830185613090565b61441f6040830184613090565b949350505050565b600081519050919050565b600082825260208201905092915050565b600061444e82614427565b6144588185614432565b9350614468818560208601612d4e565b61447181612d81565b840191505092915050565b60006080820190506144916000830187612f7a565b61449e6020830186612f7a565b6144ab6040830185613090565b81810360608301526144bd8184614443565b905095945050505050565b6000815190506144d781612ca3565b92915050565b6000602082840312156144f3576144f2612c6d565b5b6000614501848285016144c8565b91505092915050565b7f4552433732313a206d696e7420746f20746865207a65726f2061646472657373600082015250565b6000614540602083612e83565b915061454b8261450a565b602082019050919050565b6000602082019050818103600083015261456f81614533565b9050919050565b7f4552433732313a20746f6b656e20616c7265616479206d696e74656400000000600082015250565b60006145ac601c83612e83565b91506145b782614576565b602082019050919050565b600060208201905081810360008301526145db8161459f565b905091905056fe506c617965722061747461636b656420626f73732e204e657720626f73732068703a2025734142434445464748494a4b4c4d4e4f505152535455565758595a6162636465666768696a6b6c6d6e6f707172737475767778797a303132333435363738392b2f426f73732061747461636b656420706c617965722e204e657720706c617965722068703a2025730a4d696e746564204e465420772f20746f6b656e496420257320616e6420636861726163746572496e6465782025730a506c6179657220772f206368617261637465722025732061626f757420746f2061747461636b2e2048617320257320485020616e64202573204144a26469706673582212209478dbd6c82f261a63b80c47d7922f573b980393eafb19265fa691f37e0438ec64736f6c63430008090033446f6e6520696e697469616c697a696e6720257320772f2048502025732c20696d67202573446f6e6520696e697469616c697a696e6720626f737320257320772f2048502025732c20696d67202573",
  "linkReferences": {},
  "deployedLinkReferences": {}
}